:1000000000000420491A0000711A0000731A000051
:10001000751A0000771A0000791A0000000000002D
:100020000000000000000000000000007B1A00003B
:100030007D1A0000000000007F1A0000811A0000F5
:10004000C10E0000831A0000831A0000831A00000A
:10005000831A0000831A0000831A0000831A00002C
:10006000831A0000831A0000831A0000831A00001C
:10007000831A0000831A0000831A0000831A00000C
:10008000831A0000B5070000831A0000831A0000DD
:1000900079080000831A0000831A0000831A000008
:1000A000831A0000831A0000831A0000831A0000DC
:1000B000831A0000831A0000000000000000000006
:1000C000831A0000831A0000831A0000831A0000BC
:1000D000831A0000831A0000831A0000831A0000AC
:1000E000831A0000831A0000831A0000831A00009C
:1000F00000000000831A0000000000000000000063
:1001000000000000000000000000000000000000EF
:1001100000000000000000000000000000000000DF
:1001200000000000000000000000000000000000CF
:1001300000000000000000000000000000000000BF
:1004000010B5054C237833B9044B13B10448AFF34E
:1004100000800123237010BD18420020000000005E
:10042000643B000008B5034B1BB103490348AFF31D
:10043000008008BD000000001C420020643B00005A
:10044000154B002B08BF134B9D46A3F5803A0021A6
:100450008B460F461348144A121A00F063F80F4BEC
:10046000002B00D098470E4B002B00D0984700205F
:10047000002104000D000D48002802D00C48AFF305
:10048000008000F02BF82000290000F087FE00F02B
:1004900011F800BF00000800000004200000000068
:1004A0000000000018420020F04F02200000000071
:1004B0000000000008B5074B044613B10021AFF35C
:1004C0000080054B1868836A03B19847204600F006
:1004D00031F800BF000000004C3A000070B50D4E2E
:1004E0000D4CA41BA4100025A54209D10B4E0C4CA9
:1004F00003F0A0FAA41BA4100025A54205D170BDED
:1005000056F8253098470135EEE756F825309847DC
:100510000135F2E710420020104200201042002076
:100520001442002002440346934200D1704703F86E
:10053000011BF9E7FEE700BF70B5074D074E2B78AA
:1005400013B13378834205D0044600F0F5FD012352
:1005500034702B70002070BD3542002034420020E2
:100560000120FFF7E9BF00BF2DE9F041224C07460B
:1005700000200E46A56800F091FCD4E90103D4F8F0
:10058000008018440130A0EB080001281BD8B0B14E
:100590000121002261F301026FF38202052161F360
:1005A000C50208EA0303154904EB83036FF38912BC
:1005B00008F1010561F39F2200202560DA60BDE8A3
:1005C000F04100F073BC08F101030020236000F04B
:1005D0006DFC0122002362F301036FF3820305EA3D
:1005E000080567F3C50304EB85046FF3891366F30D
:1005F0009F23E360BDE8F08138420020503A0000BC
:100600002DE9F0474E4ED6E900218A428AB075D0D6
:10061000B76807EA0105023506EB85020131546827
:1006200014F003030ED1C4F3891303EB94530B446A
:1006300007EA0305023506EB8502591C546814F0DD
:100640000303F0D0022B29D0C4F38313C4F3952203
:10065000002B57D00DF1100E704601EB030C07EA8A
:10066000010506EB850501F10108E045E96840F860
:10067000041B4146F3D10093C4F3C2007346D6F87D
:1006800010440021A047B0BBD6F804803068B0EB1E
:10069000080018BF01200AB0BDE8F08701F1010889
:1006A00001EA070327EA0801013106EB8303890009
:1006B0004FEA94598945DA68D6F814A4C4F389132B
:1006C000C4F3C20022D807EA0807033706EB8707FE
:1006D0000021CDE90079CDE90211D047484507D086
:1006E00006EB850560F38F146C60D6F80480CDE7C7
:1006F000033008EB9008C6F80480C7E700200AB072
:10070000BDE8F08788460DF1100EB4E75FFA89FC6A
:1007100099B15FFA81FE07EA0807ACEB0E010337D7
:10072000F446DFF820E006EB8707C9B2CDE902E125
:10073000CDE9007C0021D047D0E7024F8E46F5E797
:10074000384200204442002000B585B000230390C9
:10075000194601AA44F20100ADF80430029300F0FA
:1007600003F805B05DF804FB08B50E490120FFF75A
:10077000FBFEFFF7F5FEFFF743FF0028FBD10A4B16
:100780001B68DB0700D5FFDEBFF34F8F0749084B1F
:10079000CA6802F4E0621343CB60BFF34F8F00BF1F
:1007A000FDE700BF5C3A0000F0ED00E000ED00E086
:1007B0000400FA052DE9F843274A284B0024C2F823
:1007C0004041C2F84441C2F84841C2F84C41C2F825
:1007D0000041C2F804411B681BB32149D2F80455FB
:1007E0000A68204FAD1A1A6825F07F45AA42A04634
:1007F00009D8197CDE69AD1A1444A1B91EB133467B
:100800001A68AA42F5D91849184A0B7812789A4200
:1008100017D01749174A41F823404FF48013C2F804
:100820000031BDE8F88383F81080D3E905933A6876
:100830004846194662B190470028DFD0FFF784FF91
:10084000DCE7531CDBB2022B08BF00230B70E0E790
:100850001846C847D2E700BF00100140704600208C
:100860006C46002050460020694600206846002063
:100870006046002000E100E02DE9F04F9D4A9E49CE
:10088000137809789D48994289B0D0F8009000F01B
:10089000F8800133DBB2022B08BF00231370984AA3
:1008A00052F82300954B09EB000A2AF07F4AC3F85F
:1008B00000A04FF0010C934A934B92F800E054785B
:1008C000D2F804B092780192904A1B681278039291
:1008D0004FF0000805937646CDF81880CDF81080CB
:1008E0004246A6421AD006EB4601019F1BF8315042
:1008F0000136F6B2BE4208BF0026022D0BEBC10145
:1009000000F09B80032DECD1002BEAD01A74DB6938
:10091000002BFBD10121A6420491E4D1049A002AC4
:1009200040F0C080069B13B1744BC3F800A0B8F12F
:10093000000F40F09982BCF1000F40F0278164461F
:100940000023CDE902339C46704BDFF8C8A11B7829
:1009500007936A4B059FD3F800804FF001093CB321
:10096000D4E901212346E469A2EB080020F07F408E
:1009700050454ED801441960C3E901CC83F810906A
:10098000C3F81CC0002F54D03A688A4280F09F8080
:100990003D4604E002688A4280F0A0800546E8698E
:1009A000891A0028F6D11960D861EB61002CD7D1E3
:1009B00003990EEB4E030EF1010276450BEBC300DB
:1009C0005FFA82FE00F0A8801BF83350019B73454C
:1009D00008BF4FF0000E012D40F086804368197C5F
:1009E0000029E6D182685A600391C1689960069532
:1009F0000569DD60406998610798002876D0039A00
:100A00005A6000220390A2EB080020F07F4050457E
:100A1000B0D9A8EB020222F07F428A424BD2891A57
:100A20001960C3E901CC83F81090C3F81CC0002FF3
:100A3000AAD11F460123029391E74F68002B3FF490
:100A400050AF9F4216D01D4600E00D46E9690029CF
:100A50003FF447AF8F42F8D1AF4202950CD0F9690D
:100A6000029D3F68E96100293FF43BAF0D683D44BA
:100A70000D6036E702931F46DB6933B10121049113
:100A8000EDE700208446CA4615E721494FF00108EA
:100A9000C1F808809A46CDF80C80CDF81880CDF8C2
:100AA0001080DCE7059A0593D21A18BF0122049240
:100AB000154A136036E7C3E900CCC3F808C083F8D1
:100AC0001090C3F81CC0002FB3D03A680021511A0F
:100AD000012239600292DF611F4640E7521A02602C
:100AE0001960D861EB6161E7012162E70698039024
:100AF0003AE700BF68460020694600206C460020A7
:100B00006046002054460020704600205C460020CD
:100B100000100140FEFF7F00002940F09E81029BF3
:100B20000BB17E4B1F607D4B059A1B68934201D130
:100B3000049A2AB3002B00F0FF80794A7948D2F852
:100B400004151C680578A1EB080323F07F430333E9
:100B5000002D00F088809C422CBF08EB0403434426
:100B60006F4823F07F43C0F84035D0F80425521A6F
:100B70005B1A22F07F4223F07F4303329A4228D847
:100B8000694A0023137009B0BDE8F08F059B00216E
:100B90000C460A468846B3B11D68854200F2B5800E
:100BA000D968C3F80080401B2A44DD6939B109EBDC
:100BB000020727F07F47C3E90171DC611C462B4621
:100BC0006146002BE8D1002940F04A81CDF810C0E1
:100BD000B6E6D0F80435554AC0F840351268544995
:100BE0002F2300BF00BF00BF00BF00BF00BF00BF7A
:100BF00000BF8A422FD000BF00BF00BF00BF00BFB0
:100C000000BF00BF00BF00BF00BF00BF00BF00BFEC
:100C100000BF00BF00BF00BF00BF00BF00BF00BFDC
:100C200000BF00BF00BF00BF00BF00BF00BF00BFCC
:100C300000BF00BF00BF00BF00BF00BF00BF00BFBC
:100C400000BF00BF00BF00BF00BF00BF00BF00BFAC
:100C500000BF00BF00BF013BC3D1364B4FF4003291
:100C6000C3F800218CE7334DDFF8C0C0304F4FF49C
:100C70008036C2F84463C2F804634FF40036C5F806
:100C800080612E6001251560DCF800602F2200BF16
:100C900000BF00BF00BF00BF00BF00BF00BFBE421B
:100CA0002FD000BF00BF00BF00BF00BF00BF00BF0C
:100CB00000BF00BF00BF00BF00BF00BF00BF00BF3C
:100CC00000BF00BF00BF00BF00BF00BF00BF00BF2C
:100CD00000BF00BF00BF00BF00BF00BF00BF00BF1C
:100CE00000BF00BF00BF00BF00BF00BF00BF00BF0C
:100CF00000BF00BF00BF00BF00BF00BF00BF00BFFC
:100D000000BF013AC3D1057025E7002940F0B0804B
:100D1000281A1860CDF810C012E600BF70460020F7
:100D2000001001405D4600205C4600200C4200207F
:100D30000024F40000E100E04F49504A504E514C6D
:100D40004FF480304FF400370125C2F88070C1F8AD
:100D500048032F22C1F808034D603068164600BFD3
:100D600000BF00BF00BF00BF00BF00BF00BFA04268
:100D70002FD000BF00BF00BF00BF00BF00BF00BF3B
:100D800000BF00BF00BF00BF00BF00BF00BF00BF6B
:100D900000BF00BF00BF00BF00BF00BF00BF00BF5B
:100DA00000BF00BF00BF00BF00BF00BF00BF00BF4B
:100DB00000BF00BF00BF00BF00BF00BF00BF00BF3B
:100DC00000BF00BF00BF00BF00BF00BF00BF00BF2B
:100DD00000BF013EC3D18D602B490B6000BF00BF37
:100DE00000BF00BF00BF00BF00BF00BFA0422FD0A8
:100DF00000BF00BF00BF00BF00BF00BF00BF00BFFB
:100E000000BF00BF00BF00BF00BF00BF00BF00BFEA
:100E100000BF00BF00BF00BF00BF00BF00BF00BFDA
:100E200000BF00BF00BF00BF00BF00BF00BF00BFCA
:100E300000BF00BF00BF00BF00BF00BF00BF00BFBA
:100E400000BF00BF00BF00BF00BF00BF00BF00BFAA
:100E5000013AC3D10D4A137092E60D4B1E705EE647
:100E60000C4A05931360B1E60B4B039A1A7062E5C6
:100E7000084A059313604BE70010014000E100E0D1
:100E80000C4200200024F4006C4600205D46002047
:100E900054460020704600205C46002072B6024A8C
:100EA000136801331360704774460020034A1368C7
:100EB000013B136003B962B6704700BF744600205F
:100EC00010B51B4B1A6882B0AAB100221A601B68C9
:100ED00000934FF080430122164C0099C3F8082379
:100EE000A36862703BB1D3E900230020A260984759
:100EF000A368002BF7D1104B1A68B2B100221A6018
:100F00001B6801934FF0804302220A4C0199C3F8F9
:100F1000082323690122A2703BB1D3E900230120F9
:100F2000226198472369002BF7D102B010BD00BFA2
:100F300000010040784600200401004010B5114631
:100F40001C461A46002000F003F8204610BD00BFE2
:100F50002DE9F04F724F3B7883B080468B46924626
:100F6000F3B9BB6202217B626E4ABB65FB62FB6523
:100F70007B656D4B39617961BA614FF40071BA6478
:100F8000FB616A4A396210233B656949FA64F81DBE
:100F900001F0F8FD6749384601F0F4FD2023BB71EC
:100FA0004FEA480404EB0806002507EBC60628466E
:100FB0000195FFF773FFD6F82C90B9F1010F6BD0B4
:100FC00043D3B9F1020F30D108F1010808EB48080A
:100FD000A946756A4FEAC808B36A346AAB4203F19E
:100FE000FF329CBF1B1903F1FF33A4EB05048CBF38
:100FF000531B5B1B07EB0802544528BF54469C4219
:10100000506828BF1C4628445946224601F053FD2B
:10101000336A25449D42A144AAEB040AA3440DD09F
:101020007562BAF1000FD7D100E0A9460020019BFC
:10103000FFF73CFF484603B0BDE8F08F00231D4694
:101040007362BAF1000FC7D1F0E7B36A716A8B42DD
:101050004FD9013B5B1A9A45E8D8444407EBC404D6
:1010600008F10108666A256A08EB480807EBC8071B
:10107000AD1BAA45786849D330442A465946AAEBA5
:10108000050601F018FD0BEB05017868324601F00A
:1010900012FDD1466662C9E7B36A716A356A8B424E
:1010A00022D9013BA3EB0109444407EBC40408F136
:1010B0000108666AD14508EB480807EBC80728BF56
:1010C000D146AD1BA945786818D330442A46594605
:1010D000A9EB050601F0EFFC0BEB05017868324641
:1010E00001F0E9FC6662A1E7EA18013AA2EB010906
:1010F000DAE7326A1A44013A531AACE730445946E7
:101100004A464E4401F0D7FC66628FE730445946A8
:101110005246564401F0CFFCD146666286E700BFD6
:10112000744F0220743A00009C4600208C46002038
:10113000803A0000843A000070B5124C237803B165
:1011400070BD02211048114DA362114A6362E3622F
:10115000A365E36521616365616110230D49E06169
:101160004FF40076E01DC4E91353A261A264266225
:1011700001F008FD0849204601F004FD2023A37179
:1011800070BD00BF744F02209C4600208C4600209A
:10119000743A0000803A0000843A00002DE9F04FD4
:1011A00069488DB001F092FC684A694902F2E97021
:1011B00012F8013FDB01A3F5AD4390424FEA232330
:1011C00003F3070301F8013FF2D1624C6248634F19
:1011D00001F07CFC0822624B6249CDE90624092219
:1011E00002264FF001084FF020094FF0000B4FF09E
:1011F0002D0ACDE904320523CDE908A14246514626
:101200000296CDE90093CDF828B0574BCDF80C806D
:10121000384600F0CFF8172520464FF6205100F051
:10122000BBF8514633464A462046CDE90086029532
:10123000CDE903B700F01EFB4C4801F047FC4949DB
:10124000DFF850C1CDF810C009220592072305220E
:10125000CDE9085107942946CDE90268CDE900920D
:1012600006934A46424BCDF828B0384600F0A2F823
:10127000204644F2202100F08FF84FF00C0A394943
:101280000391334629464A462046CDE90086049715
:10129000CDF808A000F0EEFA3648374D01F016FC04
:1012A0003049364B049305220192CDE908A1092269
:1012B00007211023CDE9052107944A46CDE90268AC
:1012C00051460093CDF828B02D4B384600F072F807
:1012D00020464FF4106100F05FF822494FF0060CF1
:1012E0003346CDF808C010222046CDE90317CDE9DA
:1012F0000086514600F0BEFA2248234E01F0E6FB7C
:1013000009220720CDE90020204B1F4A0494CDE993
:1013100002321F490A234FF41072384600F02AF9AE
:10132000194A0A21104600F04BFB5C46214616F98B
:10133000012B2846013401F0C9FB0A2CF6D100200C
:101340000DB0BDE8F08F00BF8C3A00001F3A0020BE
:101350004752012028550020A03A000048520120A1
:10136000640000209C48002034170020B03A0000A0
:1013700014280020B83A0000C83A0000A400002059
:1013800014340020C03A00001C550020143A0020FC
:10139000B40000208400002059B1013910FA81F115
:1013A0000022013810F9013F002BB8BF02708842BB
:1013B000F8D170472DE9F04F99B09146BDF89C40A7
:1013C0001094BDF8A040BDF888200E9419F0030FCA
:1013D000BDF8A84007908A460992BDF88CB0BDF8C8
:1013E0009010BDF894000A9440F0C18012F00104FE
:1013F00040F0BD80002A00F0A0800E9A0125013A3D
:1014000005FA02F20F920A9A002A00F09680013B38
:101410001193C3B20BFB0BF20C934B42179309FBD6
:1014200002F31693079B149409F1FF3513FA85F321
:101430000893269B0D9309FB0BF304935B46D3465D
:101440009A469DF85C301593002212920B931392EA
:101450005546099A129B1499DDF854A002FB031318
:10146000299AD3180593002306934E460D9B93F9B2
:101470000070109B9F400F9B1F4455B3119B01931D
:10148000DDF82CC0002302934FFA8CF00BFB00F325
:10149000019903930023002808DB0AEB030252B2F0
:1014A000002A03DB584501DA5A454ADB01339AB278
:1014B00095423144EFD8029B019A0499013302937B
:1014C0009BB20CF1010C0A449D425FFA8CFC019224
:1014D000DAD80C9A0E99069B52440F415FFA82FAB1
:1014E0000999059A07F3070717700A440133059213
:1014F0000A9A06939BB29A42B8D8DDE90B21139B56
:101500000A44D2B212990B9201330A9A13930846F5
:101510009BB210449A42B14612909AD80D9A1699ED
:10152000149B01320D92119A0A4401331192099AC7
:1015300014939BB29A42AA4683D8002019B0BDE802
:10154000F08F002EB2D0039C224406FB02FE079AC5
:101550000EF1FF341444089A72448E4614F9019F28
:101560001EF9018FA24219FB0877F7D19EE76FF0B1
:101570000200E3E72DE9F04F95B012930591BDF815
:101580007C60BDF8781009909B0813920A910B9625
:1015900000F02D81013B17469BB29208541E119317
:1015A0000D92731E0122844602FA03F3A4B20CF1D9
:1015B00008050C9307F00303601C05EB84052099D4
:1015C0000793209B04950CEB8004050111980F955F
:1015D0000433083101EB80010693219B10940E9196
:1015E0000893069A0A9912F9043C12F9034C12F96D
:1015F00002AC12F9012C8B408C400AFA01FA8A40A5
:101600000C990A4401920D9A0AEB01000B440C4418
:101610000290002A00F02781099A02F10409059A34
:1016200002F1100719F9021C17F90E5C19F9042CC4
:1016300017F910BC17F90DCC17F90A6C17F909AC9A
:1016400019F901EC17F9060C15FB01F812FB0B85D3
:1016500017F90FBC1CFB01FC12FB0BCC2B44A44460
:1016600017F90C5C17F90B4C17F905BC03931AFB1F
:1016700001FA16FB01F610FB0EF819F9031C17F915
:10168000080C019B12FB056617F9025C12FB04A211
:1016900017F9014C17F903AC11FB00801BFB0EFB83
:1016A00015FB0EF814FB0EFE029C17F9045C264491
:1016B00017F9074C11FB058511FB04B41A4411FB03
:1016C0000AE18A18039B0192049A09F10409034470
:1016D0004A4505EB06006444029007F11007A1D1CA
:1016E000059A0F990A4410990592079A002A4FD03B
:1016F000059891F9002090F9016090F9025090F955
:10170000007090F9030012FB0644029E12FB05656F
:101710000295019D12FB073312FB0050079A0190BE
:10172000012A00F09C80059891F9012090F905604C
:1017300090F9065090F9047090F9070012FB0644E6
:10174000029E12FB05650295019D12FB073312FBF9
:1017500000520192079A022A00F08780059F91F9B2
:10176000022097F9095097F90A0097F9086097F94C
:101770000B1012FB0544029D12FB005002900198D1
:1017800012FB063312FB0102019207F10C020592D3
:101790000B9A00251341144103F3070363F3070574
:1017A0001346029A04F30704114664F30F25019AC5
:1017B00041FA03FB0BF3070B6BF317451A4102F3D6
:1017C000070262F31F65089A069B42F8045B0892C1
:1017D0000E9A04339A4206937FF403AF119B219A29
:1017E00001339B001A442192209A1A442092129BA2
:1017F00013F003032FD00B992098DDF814E0DDF8E7
:1018000028A0DDF88480013B4A1E4FF0010C10FA3D
:1018100083F70CFA02FC139B099AB946461ED518A9
:101820001F468B4616F9013F03FA0AF3634457B18A
:10183000099A714612F9014B11F9010BAA4214FBE6
:101840000033F7D1BE444E4543FA0BF303F30703CD
:1018500008F8013BE6D1002015B0BDE8F08F059AED
:101860000432059294E709993FE7059A08320592F8
:101870008EE700BF2DE9F04F8FB00793BDF86030C1
:101880000593BDF864300193BDF868300D90029364
:10189000002A7BD0002B79D09246059A5242002331
:1018A00092B28B460C930B920B9909911C99194497
:1018B00008910D990022CB180A920693019B079973
:1018C000DDF82C9002FB0316059BF61A029B03FB26
:1018D00002F34FF0000E0393BDF9243004937746D2
:1018E000049BB34269DA0799019A07FB0212059932
:1018F0000FFA89F5521A6FF080081946954219DAE5
:1019000000290BFB03FC4DDB9B452B4641DD2C46A0
:10191000581C002B03B20ADB0CEB0400A3450AFBA6
:1019200000F004DD069C20568045B8BF80469342F7
:101930001C46EDDB013109B2B1420B46DEDB4FFA4A
:1019400088F8039B1F44019B0AFB07F79944089BF7
:101950000EF1010E03F80780029B0FFA8EFE9E45E2
:101960001FFA89F97746BBDB0A9B019901331AB24A
:10197000099B0A920B4402999BB28A4209939DDB10
:101980000C9B01331BB253450C938DDB0FB0BDE8AC
:10199000F08F01331BB29A42CCDD01331BB29A4265
:1019A000F7DCC7E72B4601331BB29A42FBDC01315F
:1019B00009B2B1420B46A1DBC1E74FF07F08C0E797
:1019C00000293FD0F0B400236FF48075C456013372
:1019D000A5421BB2B8BF25468B42F7DB083D002469
:1019E0002DB2264601270357AB4206DD5B1B83F36E
:1019F0000503DBB207FA03F31E44013424B28C4220
:101A0000F1DB00244FF48013A44693FBF6F605F1B6
:101A10000D070CE0FB1A83F30503DBB246FA03F370
:101A200003F307031355013424B28C4208DA035739
:101A3000AB42EFDC02F804C0013424B28C42F6DB86
:101A4000F0BC7047FFDE00BF0649074A074B9B1AF0
:101A500003DD043BC858D050FBDC00F013F8FEF760
:101A6000EFFC0000483C000000000020184200206D
:101A7000FEE7FEE7FEE7FEE7FEE7FEE7FEE7FEE73E
:101A8000FEE7FEE730B4394B1B68082B19D0384A03
:101A9000D2F8883043F47003C2F88830BFF34F8F18
:101AA000BFF36F8F4FF01023D3F80022002A2CDBF6
:101AB000D3F80432002B28DB2E4B2F4A1A6030BC9F
:101AC00070472E4B1B68002BE1D14FF080422C4811
:101AD0002C4CC2F80C312C49C2F810312B4DC2F8F5
:101AE0003835FB222A4B2560C0F818250A681B6888
:101AF00000F5D33022F00F02403003F00F03134300
:101B00004FF400720B600260C1E7224B0122C3F860
:101B10000425D3F80024002AFBD04FF01023122212
:101B20001C49C3F80022D1F80034002BFBD04FF041
:101B300010221221174BC2F80412D3F80024002AF5
:101B4000FBD000221349C3F80425D1F80034002B40
:101B5000FBD0BFF34F8F06490F4BCA6802F4E06217
:101B60001343CB60BFF34F8F00BFFDE73001001080
:101B700000ED00E00C4200200090D0033401001082
:101B800000F000408C560040E40E00404881030005
:101B90005802001000E001400400FA0503685A00F2
:101BA0004CBF43F0004323F000431844704700BF8C
:101BB00061B32DE9F84F01F1FF3A90460646D14650
:101BC000002707EB090404EBD4746410E5007119D5
:101BD0000846FFF7E3FFA245834605F108003044BD
:101BE00009D0FFF7DBFFC34500F1FF3005D84045C2
:101BF00009D2671CE5E7C34505D9A74202D004F125
:101C0000FF39DEE700210846BDE8F88F0846704737
:101C1000012807D0022807D0044B00280CBF184623
:101C2000002070470248704702487047FD220000BC
:101C3000012300000523000030B5254B83B0044686
:101C40008D1E4BB301A92846AFF30080F0B1019976
:101C50002A46FFF7ADFF0146C0B1FFF79FFF4B6873
:101C6000A064012B2ED0002B01F1040026DBFFF72E
:101C700095FF0023C4E913030368002B12DBFFF771
:101C80008DFF00232061184603B030BD002323617F
:101C90000923184603B030BD0E490F48091AC91070
:101CA0000191D5E7C3F30360FFF7B2FF002814BF2B
:101CB000002309232061184603B030BD0123C4E985
:101CC0001303D9E7002323610523184603B030BD71
:101CD00000000000483C0000803B00000368DA0779
:101CE00010B5044606D49B0700F1480009D500F062
:101CF0005FFC2368590709D51A070ED5DB0613D5F3
:101D000010BD00F04DFC23685907F5D404F1D00054
:101D100000F056FC23681A07F0D404F5A87000F010
:101D200057FC2368DB06EBD404F5E870BDE81040EF
:101D300000F092BC036803B103441846704700BF2B
:101D400009207047704700BF70B504460D4608E093
:101D50002B6C63612A462369214601209847082895
:101D600008D1296C2046FFF767FF06460028EFD010
:101D700000F09AFE0728FBD13046296CFFF7E2FFFE
:101D8000281D00F001FC00BF2DE9F0470C1D0546A1
:101D900017460FCCADF5727D03AE0FC60FCC0FC644
:101DA0000FCC0FC694E80F0002ACD5F80C80D5F824
:101DB000189086E80F000023236021E0236C6B61FC
:101DC0004FF4F07221467AA800F075FE2B697AAACA
:101DD000294630469847889BCDE90049824663648E
:101DE00031462B462A460120C0470746F8B94FF432
:101DF000F0727AA9204600F05EFEBAF1080F1CD1FD
:101E0000216C2846FFF718FF002F08BF0926074658
:101E100018BF0A260028D1D0A36B46F01001CDE9E7
:101E200000492A46636401202B46C04700B10927B8
:101E300038460DF5727DBDE8F087BAF1070FF6D18F
:101E40003846216CFFF77EFF03A800F09DFB00BF22
:101E5000406C7047F0B5CB6B0B640D1D0F4606460A
:101E60000FCDF9B001AC0FC40FCD0FC40FCD0FC40F
:101E700095E80F004FF0FF3584E80F00009506E06D
:101E800033696A46314698470828044608D11099B4
:101E90003046FFF7D1FE0028F2D0092079B0F0BD1E
:101EA0006846FFF71BFF062CF7D139463046FFF78F
:101EB0004BFF00BF30B4DD6BC160826119461D6409
:101EC000002230BC60E700BF70B5C66843690B6490
:101ED000BEB903690A4604460D46014602209847EA
:101EE000072807D0082803D129462046FFF72CFFF2
:101EF00000F0DAFD3046296CFFF724FF281D00F0C2
:101F000043FB0122FFF740FF00F0CEFDC2681AB18B
:101F1000CA6B0A64002237E79CE700BF704700BF26
:101F2000836813B10146012018477047042907D878
:101F3000DFE801F00308060808000BB90F2A03D9EF
:101F4000022070470120704700EB82021846536858
:101F5000009A1360704700BF10B584B0002303AC33
:101F60000A4600941946FFF7E1FF039804B010BD3C
:101F7000042907D8DFE801F00308060808000BB9B8
:101F80000F2A03D9022070470120704700EB82001E
:101F9000009A126842601846704700BF10B584B0BE
:101FA00004AC002344F8042D0A4600941946FFF7B8
:101FB000DFFF04B010BD00BFF0B5D36B1364151D77
:101FC00007460E460FCDADF50F7D17AC0FC40FCDF4
:101FD0000FC40FCD0FC495E80F004FF0FF3584E814
:101FE0000F00169510E016A8FFF7D8FF314616A887
:101FF000B84716AA694678B9049B0820984705286F
:1020000004460AD0092807D026996846FFF714FE2F
:102010006A460C210028E6D0092416A8FFF75EFEC8
:1020200020460DF50F7DF0BD2DE9F04F0D46C96C32
:1020300089B00C1D164600F0030B0A6806941F4673
:10204000002B68D0130CD9B212048DF81D30022376
:1020500004EB810405928DF81C302B6DBBF1020F4F
:1020600008BFAC6B13F0010346D1019300F00803E5
:102070000093D4F80090B9F1000F00F0F380022F24
:1020800045D0B4F80090B4F802800434AB6C28F06A
:10209000010A0F2130469A44FFF75EFF824534D88B
:1020A00029F001035344834294BF002001204FEAEA
:1020B000480808F0020809F0010948EA0908B8F1DF
:1020C000010F3AD031D3B8F1020F1AD1236823F0AF
:1020D000004ABBF1000F66D130B1009A002A6CD0E3
:1020E000BAF1000F00F09080002B00DA04340AF1FE
:1020F000010304EB8304BCE7304605A900F046FB6E
:1021000078B1092009B0BDE8F08F0020CFE7D4F8FE
:1021100004800834BAE7120203230592ADF81C309C
:102120009BE7082009B0BDE8F08FBBF1000F02D09B
:10213000002840F0B48004349BE7BBF1000F18D1B5
:10214000A8B1D4E90023991C4FEAD272D9D005F185
:1021500058010133049100F0B580201DFFF7EAFD1E
:1021600004AB01462846AFF30080002867D108344D
:102170007FE70D213046D5F82080FFF7EDFE804542
:10218000F5D1AB6A9C42F2D12046FFF707FD0F2143
:1021900002463046FFF702FF30462A460021FFF78D
:1021A000FDFE0720AEE70D213046D5F82080FFF771
:1021B000D3FE804532D0236896E7BAF1000F23D0D2
:1021C00005F1580304F10408CDF808B0DDF80090DB
:1021D0000397A3461C4602E05745B94640D0404607
:1021E0000494FFF7A7FD04AB014600222846AFF395
:1021F000008009F1010708F104080028ECD0D1455E
:102200005C46DDE902B7D6D130460D21FFF7A4FECA
:10221000049B2862C5E90934062073E7AB6A9C4237
:10222000C9D104224FF00008A318C5E90AA8C5E9DE
:102230000C23236843454DDB0123019357E7804678
:102240000D213046FFF788FEB8F1020F28623ED11B
:102250002B46049A43F82C2F6B62AC62062051E7A0
:102260005C46D1E705A9304600F090FA00287FF4DB
:1022700048AF019B002B3FF454AF0F213046FFF7CE
:102280006BFE0E2102463046FFF788FE30461A4AA2
:102290000F21FFF783FE072009B0BDE8F08F20462D
:1022A000FFF77CFC04340746AC632846AFF300809C
:1022B00000283FF426AF30463A460F21FFF76EFE66
:1022C00007201FE730460D21FFF746FE2862049BDA
:1022D0006B62C2E70AF1010004EB8000FFF75EFCCD
:1022E0000F2102463046FFF759FE30462A46414646
:1022F000FFF754FE072005E700000000002393E6E7
:10230000012391E602238FE62DE9F0410546C4B092
:10231000042906D8DFE801F04D2B05030900032B43
:102320005FD0022044B0BDE8F081002BF9D1102A23
:10233000F7D82B68DC0600F1F48022AC204601922D
:1023400000F094F9A86B019A0023012606FA03F124
:10235000114203D0016844F8231004300133042BE8
:10236000F4D1A863204600F077F90020DAE7012BCA
:102370004FEA124697B252D0052BD2D106EB07088E
:10238000B8F1200FCDD80F2E40F29980B846002F1B
:1023900040F0DB80AA6BAA630F2E40F2BE80B8F13A
:1023A000000F02D002A800F00BF9002044B0BDE8F5
:1023B000F081002BB5D1AC6B97B2281D012606FA2F
:1023C00003F1394203F1010302D0216801600434B2
:1023D000102B00F10400F2D112F40050E5D1AC63EF
:1023E000A0E7160C97B2F319102B9AD82B681A078E
:1023F0005DD422AC204600F00DF904EBC601AB6BB6
:102400003FB103EBC702186841F8040B0433934251
:10241000F9D12046AB6300F0DBF8002082E7F21927
:10242000102A3FF67EAF0F2E3FF67BAF2A68D1070A
:1024300008D5284622F0030240F8482B019300F00B
:10244000B3F8019B019322AC204600F0ADF8A96BD4
:10245000019B002F00F095807F0004EBC6044FF035
:102460000008043C01EB870251F8040B44F8040F08
:102470009142F9D1B8F1000F0FD002AC102E3146C5
:1024800038BF102104EBC101843902EBC80452F8B3
:10249000040B41F8040F9442F9D1012B7FF47BAF78
:1024A00022AC0432AA63204600F07AF87DE723F0DC
:1024B00008032B6005F5A87000F0ACF899E7B8F1B7
:1024C000100F2A6843D9D007A8F110080BD5284669
:1024D00022F0010242F0020240F8482B019300F082
:1024E0006BF82A68019B510725D40F2E04D822A827
:1024F000019300F061F8019B019302AC204600F0CB
:1025000063F8C6F110010029AA6B019BB6DD22AC6D
:102510004F0004EBC6041146A3E722A800F048F8D8
:102520003DE723F010032B6005F5E870019200F001
:102530009DF8019A01E7284622F0040240F8D02BCA
:10254000019300F041F8019BCFE72A68CBE7D00761
:102550000AD5284622F0010242F0020240F8482B38
:10256000019300F029F8019B019322AC204600F072
:1025700023F8B846A96B019B002F7FF46DAF0A4684
:1025800009E70A468DE700BF00F1340191E8380001
:102590009C46A6464CF8045D90E8FF0FE54600BD5A
:1025A00090EC210B704700BF80EC210B704700BFFF
:1025B00090EC200B704700BF80EC200B704700BFF1
:1025C000D0EC200B704700BFC0EC200B704700BF61
:1025D000F0EC0201F0EC0211F0EC0221F0EC02311F
:1025E000F0EC0241F0EC0251F0EC0261F0EC02710F
:1025F000F0EC0281F0EC0291F0EC02A1F0EC02B1FF
:10260000F0EC02C1F0EC02D1F0EC02E1F0EC02F1EE
:10261000704700BFE0EC0201E0EC0211E0EC0221A7
:10262000E0EC0231E0EC0241E0EC0251E0EC02614E
:10263000E0EC0271E0EC0281E0EC0291E0EC02A13E
:10264000E0EC02B1E0EC02C1E0EC02D1E0EC02E12E
:10265000E0EC02F1704700BFB0FC0181B0FC0191D9
:10266000B0FC01A1B0FC01B1704700BFA0FC01812A
:10267000A0FC0191A0FC01A1A0FC01B1704700BF2A
:10268000EC4600B52DE900502DE9FF1F4FF0000387
:102690002DE90C0001A9FFF7DDFBDDF840E012B0E9
:1026A000704700BFEC4600B52DE900502DE9FF1F33
:1026B0004FF000032DE90C0001A9FFF705FCDDF840
:1026C00040E012B0704700BFEC4600B52DE9005065
:1026D0002DE9FF1F4FF000032DE90C0001A9FFF7C2
:1026E00015FCDDF840E012B0704700BFEC4600B5C5
:1026F0002DE900502DE9FF1F4FF000032DE90C00DC
:1027000001ABFFF7D7FBDDF840E012B0704700BF28
:10271000EC4600B52DE900502DE9FF1F4FF00003F6
:102720002DE90C0001AAFFF747FCDDF840E012B0EC
:10273000704700BF027A82B9437AABB14268013B6D
:1027400010B4437213680321141D01721A0244600D
:1027500002605DF8044B180E70470368013A02727C
:102760001A020260180E7047B020704700B585B09D
:1027700003AA0023009219460C22FFF7D7FB039807
:1027800005B05DF804FB00BFF0E700BF2DE9F043A2
:10279000054685B00E464FF000083046FFF7CAFFE9
:1027A000B028044600F0B180070620D500F0F00301
:1027B000802B65D0902B36D0A02B78D0B02B47D073
:1027C000C02B00F08A8000F0F803D02B0BD100F072
:1027D0000702013242F40022052301212846FFF7B7
:1027E00093FD0028D9D0092005B0BDE8F0830DF194
:1027F0000C09002319468700CDF800900D222846C9
:10280000FFF794FBFFB2039BCDF8009004376006FE
:102810004CBFDF1BFF18002319460D2228460397E3
:10282000FFF7A6FBB9E700F00D030D2BDBD003AFDC
:10283000002300F00F02194600972846FFF776FBA9
:102840000023009719460D222846FFF791FBA4E7C5
:10285000B1285FD0B22800F0CC80B3287ED000F041
:10286000FC03B42BBFD000F007020132012342F475
:10287000002219462846FFF747FD00288DD0B2E711
:102880003046FFF757FF24020443B4F5004FAAD0A7
:1028900024010023A2B219462846FFF735FD00287F
:1028A000A1D114F4004F18BF4FF0010875E7C243DF
:1028B00002F007034FF47F621A41010702F47F62BE
:1028C0004FF0000348BF42F4804219462846FFF704
:1028D0001BFD00283FF461AF85E7C62851D0C7280B
:1028E0005AD000F0F803C02B69D0C82875D0C92889
:1028F0007FF479AF3046FFF71DFF020300F00F00B1
:1029000002F470220130024366E7B8F1000F14D0E0
:10291000002069E73046FFF70DFF00283FF463AF62
:1029200010F0F0037FF45FAF024619462846FFF728
:10293000EBFC00283FF431AF55E703AC43460E22D1
:10294000414600942846FFF7F1FA00942846434692
:102950000F224146FFF70CFB404645E73046FFF7A4
:10296000E9FE010300F00F0001F47021421C012375
:102970000A4328461946FFF7C7FC00283FF40DAF6D
:1029800031E73046FFF7D6FE010300F00F0001F4F7
:102990007021421C0323EBE73046FFF7CBFE0246D3
:1029A00000283FF420AF10F0F0037FF41CAF0421A7
:1029B0002846FFF7A9FC00283FF4EFAE13E700F02C
:1029C0000F020132032342F4202219462846FFF762
:1029D0009BFC00283FF4E1AE05E73046FFF7AAFE76
:1029E00000F0F00200F00F031032013343EA02322C
:1029F000F2E600230DF10C090D221946CDF80090E6
:102A00002846FFF793FA3046FFF794FE02064FF090
:102A100002070CD5039B00F07F00B840034430460A
:102A20000393FFF787FE030607F10707F2D4039B22
:102A3000CDF8009000F07F0403F50172BC40002344
:102A4000144419460D2228460394FFF791FAA4E690
:102A500010B5C36C84B05A6803208DF80C00DC7983
:102A60008DF80D4012020833084601A90192029325
:102A7000FFF78CFE04B010BD08B5FFF785FE806C33
:102A800008BD00BF08B5FFF77FFEC06CC37900EB3F
:102A90008300083008BD00BF08B500F005F800BF8E
:102AA00008B5FFF7F9FF00BF08B5062000F04EF8A3
:102AB0000120FDF73FFD10B5431E0A44914200D1AD
:102AC00010BD11F8014B03F8014FF7E70FB40A4BA3
:102AD00013B51C6824B1A36913B9204600F09AF815
:102AE00005AB049AA1680193204600F0A1F902B059
:102AF000BDE8104004B07047000000201F2938B521
:102B000004460D4604D9162303604FF0FF3038BD4C
:102B1000426C12B152F821304BB9204600F030F827
:102B20002A4601462046BDE8384000F017B8012B80
:102B30000AD0591C03D1162303600120E7E70024C3
:102B400042F82540284698470020E0E7024B01461E
:102B50001868FFF7D3BF00BF0000002038B5074C4E
:102B60000023054608461146236000F03DFF431C44
:102B700002D1236803B12B6038BD00BFEC4F0220A7
:102B800000F022BF034611F8012B03F8012B002AA5
:102B9000F9D17047002310B50446C0E900338360C3
:102BA00081814366C281C0E90433836119460822EA
:102BB0005C30FDF7B7FC054B6362054BA362054B28
:102BC000E362054B2462236310BD00BF8D33000018
:102BD000AF330000E73300000B340000014900F080
:102BE00085B800BFC136000070B54A1E6825554340
:102BF0000E4605F1740100F097F8044640B100213B
:102C0000C0E900160C30A06005F16802FDF78AFCEF
:102C1000204670BD836910B5044633BBC0E912334A
:102C20000365124B124A1B688262984204BF01235B
:102C3000836100F01FF86060204600F01BF8A06080
:102C4000204600F017F80022E06004216068FFF7DA
:102C5000A1FF01220921A068FFF79CFF0222122197
:102C6000E068FFF797FF0123A36110BD4C3A000015
:102C7000DD2B0000F8B51B4B1E68B369074613B97E
:102C80003046FFF7C7FF4836D6E90134013B03D58C
:102C9000336833B13668F7E7B4F90C506DB1683476
:102CA000F4E704213846FFF79FFF30600028F1D198
:102CB0000C233B6004462046F8BD0B4B6566C4E917
:102CC0000055A560C4E90335C4E905550822294625
:102CD00004F15C00FDF726FCC4E90D55C4E912556A
:102CE000E9E700BF4C3A00000100FFFF2DE9F8437F
:102CF0008046894600F14804002614B93046BDE8F4
:102D0000F883D4E90175013F01D52468F5E7AB8963
:102D1000012B07D9B5F90E30013303D029464046BF
:102D2000C84706436835EEE770B5CD1C25F00305AE
:102D300008350C2D38BF0C25002D064601DBA942B5
:102D400003D90C233360002070BD00F0A9FD214A97
:102D50001468214691B9204C23681BB9304600F015
:102D600005FB20602946304600F000FB431C24D1BF
:102D70000C233360304600F094FDE4E70B685B1BE6
:102D800018D40B2B0FD90B60CD50CC18304600F067
:102D900088FD04F10B00231D20F00700C31AD3D0D7
:102DA0005A42E250D0E78C424B6816BF6360136012
:102DB0000C46EBE70C464968CCE7C41C24F003043E
:102DC000A04205D0211A304600F0D0FA0130CFD011
:102DD0002560DBE7684F02206C4F02209368013BBF
:102DE000002B10B4936008DA9469A34201DB0A292E
:102DF00003D15DF8044B00F00DBB1368581C106044
:102E0000197008465DF8044B7047F8B506460F4642
:102E10001446D518AC4201D1002007E03A4614F818
:102E2000011B3046FFF7DAFF431CF3D1F8BD000069
:102E30002DE9F04F0C469DB017461D46064618B1C9
:102E400083690BB9FFF7E6FE7C4B9C4258D174684E
:102E5000A38918075ED52369002B5BD00023099353
:102E600020238DF8293030238DF82A3003954FF038
:102E7000010BB846454615F8013B0BB1252B54D143
:102E8000B8EB070A0BD053463A4621463046FFF7C7
:102E9000BCFF013000F0C280099B5344099398F8AD
:102EA0000030002B00F0BA8000234FF0FF32CDE954
:102EB0000523049307938DF853301A93A8460522EF
:102EC00018F8011B5E4800F09BFC049B78BBD906F8
:102ED00044BF20228DF853201A0744BF2B228DF8BF
:102EE00053202A782A2A2AD0079AA84600200A25A1
:102EF000414611F8013B303B092B69D960B324E00E
:102F0000504B9C4201D1B468A2E74F4B9C4208BF92
:102F1000F4689DE72146304600F0CEFA00289DD0A7
:102F20004FF0FF301DB0BDE8F08FA846A2E7444A3D
:102F3000801A0BFA00F0184304904546BEE7039A46
:102F4000111D12680391002A01DB079204E052422E
:102F500043F002030792049398F800302E2B0ED111
:102F600098F801302A2B38D1039B1A1D1B68039255
:102F7000002BB8BF4FF0FF3308F102080593334D23
:102F800098F800100322284600F03AFC40B1402394
:102F9000401B03FA00F0049B034308F1010804936B
:102FA00098F800102A488DF82810062208F1010729
:102FB00000F026FC002837D0264B1BBB039B0733B1
:102FC00023F0070308330393099B4B44099350E70D
:102FD00005FB0232012088468AE7002308F1010838
:102FE000059319460A25404610F8012B303A092A64
:102FF00003D9002BC3D00591C1E705FB01210123B3
:103000008046F0E703AB00932246134B04A93046F9
:10301000AFF30080B0F1FF3F8146D5D1A3895B06B5
:103020003FF57EAF09987DE703AB009322460A4B3C
:1030300004A9304600F088F8ECE700BFF03A000041
:10304000303B0000103B0000D03A0000363B00004F
:103050003A3B0000000000000B2E00002DE9F04775
:1030600091461F468A680B69DDF820809342B8BFFD
:103070001346C9F8003091F8432006460C4612B1B9
:103080000133C9F800302368990642BFD9F80030EF
:103090000233C9F80030256815F0060507D104F1A0
:1030A000190AE368D9F800209B1AAB4228DC94F88F
:1030B00043302268003318BF012392062DD404F157
:1030C000430239463046C047013020D02368E568C6
:1030D000D9F8002003F00603042B08BFAD1AA3683B
:1030E00022690CBF25EAE57500259342C4BF9B1AEF
:1030F000ED184FF000091A344D451AD1002008E0B0
:103100000123524639463046C047013003D14FF0C3
:10311000FF30BDE8F0870135C3E7E1185A1C3020C5
:1031200081F84300224494F8451082F8431002339A
:10313000C5E70123224639463046C0470130E6D074
:1031400009F10109D8E700002DE9F04301F1430C32
:103150000C46097E85B06E291746064698460C9A9D
:1031600000F0B38022D8632936D00AD8002900F0B5
:10317000B980582900F0838004F1420584F8421098
:1031800032E0642901D06929F6D120681368050668
:1031900003F104012AD51B681160002B03DA2D22EC
:1031A0005B4284F843206F480A2239E0732900F01B
:1031B0009D8008D86F2920D07029DDD1236843F085
:1031C0002003236003E0752917D07829D4D1782310
:1031D00084F84530644855E01368191D1B68116078
:1031E00004F1420584F8423001238CE01B68116031
:1031F00010F0400F18BF1BB2CFE713682568181DE9
:103200001060280601D51B6802E06806FBD51B8804
:1032100054486F2914BF0A220822002184F8431061
:103220006568A560002DC0F29580216821F0040139
:103230002160002B3DD1002D40F08E806546082A8C
:103240000BD12368DB0708D5236962689A42DEBF89
:10325000302305F8013C05F1FF35ACEB0503236194
:10326000CDF800803B4603AA21463046FFF7F6FE24
:1032700001304DD14FF0FF3005B0BDE8F083394843
:1032800084F84510136821681D1D1B6815600A0627
:103290000BD5CA0744BF41F0200121601BB9226849
:1032A00022F0200222601022B7E74D0648BF9BB2F1
:1032B000EFE76546B3FBF2F102FB1133C35C05F89F
:1032C000013D0B460029F5D1B9E71368256861690E
:1032D000181D106028061B6801D5196002E06A06F7
:1032E000FBD51980002323616546B9E71368191DD2
:1032F00011601D6862680021284600F081FA08B15B
:10330000401B606063682361002384F84330A7E7B3
:1033100023692A4639463046C0470130AAD023687F
:103320009B0713D4E068039B9842B8BF1846A3E7F5
:1033300001234A4639463046C04701309AD001350C
:10334000E368039A9B1AAB42F2DCEBE7002504F139
:103350001909F5E7002BACD1037884F8423004F169
:1033600042056CE7413B0000523B000038B5064C7B
:10337000002305460846236000F04EFB431C02D1A3
:10338000236803B12B6038BDEC4F022010B50C460A
:10339000B1F90E1000F0D4FA0028ABBF636DA38919
:1033A0001B1823F48053ACBF6365A38110BD2DE9C6
:1033B000F0411F468B89DB0505460C46164605D5B0
:1033C00002230022B1F90E1000F0A4F9A389B4F988
:1033D0000E1023F48053A38132463B462846BDE8B5
:1033E000F041FDF7ABBD10B50C46B1F90E1000F081
:1033F00091F9431CA38915BF606523F4805343F4FE
:103400008053A38118BFA38110BDB1F90E1000F045
:10341000C1B80000F8B50E461446054618B18369D8
:103420000BB9FFF7F7FB214B9C422AD16C68A369CB
:10343000A360A3891A072ED5236963B32369206883
:10344000C01A6369F6B28342374604DC2146284637
:1034500000F036F928BBA368013BA36023685A1C1F
:1034600022601E7063690130834204D0A389DB07A8
:1034700019D50A2E17D12146284600F021F990B11E
:103480000FE00B4B9C4201D1AC68D0E7094B9C424A
:1034900008BFEC68CBE72146284600F00DF800286D
:1034A000CCD04FF0FF373846F8BD00BFF03A0000EF
:1034B000103B0000D03A0000324B70B51D68064644
:1034C0000C4625B1AB6913B92846FFF7A3FB2E4B79
:1034D0009C420FD16C68B4F90C309AB215072CD409
:1034E000D00611D40922326043F04003A3814FF08B
:1034F000FF303EE0254B9C4201D1AC68EBE7244B0A
:103500009C4208BFEC68E6E7510712D5616B41B1F8
:1035100004F14403994202D0304600F0C3F900237D
:103520006363A38923F02403A381002363602369D9
:103530002360A38943F00803A38123694BB9A389BE
:1035400003F42073B3F5007F03D02146304600F02A
:1035500017F9A28912F001030CD00023A36063695C
:103560005B42A361236953B9B4F90C3013F08000B6
:10357000BAD170BD920758BF6369A360F2E700201B
:10358000F7E700BF00000020F03A0000103B000009
:10359000D03A000038B5064C0023054608462360A3
:1035A00000F002FA431C02D1236803B12B6038BD3E
:1035B000EC4F02208A892DE9F041054610070C46A0
:1035C00058D44B68002B05DC0B6C002B02DC002070
:1035D000BDE8F081E66A002EF9D0002312F4805293
:1035E0002F68216A2B6032D0606DA3895A0705D5F8
:1035F0006368C01A636B0BB1236CC01A00230246C8
:10360000E66A216A2846B047431CA38906D1296887
:103610001D2948D8294ACA40D60744D500226260ED
:10362000D9042269226004D5421C01D12B6803B958
:103630006065616B2F600029C9D004F14403994291
:1036400002D0284600F02EF900206063C0E7012375
:103650002846B047411CC8D12B68002BC5D01D2B74
:1036600001D0162B01D12F60B1E7A38943F04003AD
:10367000A381ADE70F69002FA9D093070E6808BF9B
:103680004B690F6018BF0023A6EB07088B60B8F1E9
:10369000000F9CDD43463A46216AA66A2846B04799
:1036A000002806DCA38943F04003A3814FF0FF30DC
:1036B0008EE70744A8EB0008E9E700BF01004020BF
:1036C00038B50B6905460C46DBB118B183690BB9F7
:1036D000FFF7A0FA0C4B9C4209D16C68B4F90C308E
:1036E0007BB121462846BDE83840FFF763BF074B52
:1036F0009C4201D1AC68F1E7054B9C4208BFEC68E5
:10370000ECE7002038BD00BFF03A0000103B00009D
:10371000D03A000038B5074C05460846114600224D
:1037200022601A4600F068F9431C02D1236803B1F5
:103730002B6038BDEC4F022070B50E46B1F90E106B
:10374000002996B014461D4607DA00232B60B38982
:103750001A0610D44FF480630EE06A4600F002F9B6
:103760000028F2DB019A02F47042A2F500535A429B
:103770005A412A60EEE740230020236016B070BD56
:103780008B8973B59D0706460C4607D504F14703A0
:10379000236023610123636102B070BD01AB6A46FF
:1037A000FFF7CAFF009905463046FFF7BDFA48B952
:1037B000B4F90C309A05EFD423F0030343F002036D
:1037C000A381E3E70D4BB362A389206043F080033C
:1037D000A381009B6361019B20615BB1B4F90E1072
:1037E000304600F0D1F828B1A38923F0030343F059
:1037F0000103A381A3891D43A581CDE7DD2B000033
:1038000001F0FF01102A2BDB10F0070F08D010F891
:10381000013B013A8B422DD010F0070F42B3F6D195
:10382000F0B441EA012141EA014122F007047FF0AE
:1038300000070023F0E80256083C85EA010586EA05
:10384000010685FA47F5A3FA87F586FA47F6A5FA41
:1038500087F68EB9EED1F0BC01F0FF0102F007024D
:1038600032B110F8013B013A83EA010313B1F8D1F8
:103870000020704701387047002D06BF35460338D9
:10388000073815F0010F07D1013015F4807F02BF12
:10389000013015F4C03F0130F0BC0138704700BF63
:1038A0007047704738B50546002945D051F8043CAB
:1038B0000C1F002BB8BFE418FFF7F2FF1F4A136874
:1038C000104633B9636014602846BDE83840FFF7FE
:1038D000E8BFA3420CD921686218934204BF1A685A
:1038E0005B68636004BF521822600460ECE7134613
:1038F0005A680AB1A242FAD919685818A0420BD1E5
:1039000020680144581882421960DDD1106852685D
:103910005A6001441960D7E702D90C232B60D3E722
:10392000206821188A4204BF11685268626004BF8F
:10393000091821605C60C7E738BD00BF684F0220EE
:1039400038B5074C054608461146002222601A4643
:1039500000F05AF8431C02D1236803B12B6038BD34
:10396000EC4F022038B5074C0023054608461146A7
:10397000236000F021F8431C02D1236803B12B60BF
:1039800038BD00BFEC4F022038B5064C0023054679
:103990000846236000F020F8431C02D1236803B1DD
:1039A0002B6038BDEC4F0220024B58221A604FF0BA
:1039B000FF307047EC4F0220024B58221A604FF044
:1039C000FF307047EC4F0220024B58221A604FF034
:1039D000FF307047EC4F0220024B58221A60002043
:1039E000704700BFEC4F0220024B58221A604FF084
:1039F000FF307047EC4F0220024B58221A604FF004
:103A0000FF307047EC4F0220024B58221A604FF0F3
:103A1000FF307047EC4F0220044A05491368002B21
:103A200008BF0B461844106018467047704F0220BC
:103A3000F04F0220F8B500BFF8BC08BC9E467047A6
:103A4000F8B500BFF8BC08BC9E46704704000020D3
:103A50004F766572666C6F770D0A00004150505FBB
:103A60004552524F523A4552524F523A4661746152
:103A70006C0D0A005465726D696E616C0000000087
:103A800052545400534547474552000073746172C5
:103A90007420657865637574696F6E0A00000000B4
:103AA000696D616765206C6F616465640A00000080
:103AB000626C6F636B310A00626C6F636B320A0079
:103AC000626C6F636B330A0025643A2025640A0038
:103AD00000000000000000000000000000000000E6
:103AE00000000000000000000000000000000000D6
:103AF00000000000000000000000000000000000C6
:103B000000000000000000000000000000000000B5
:103B100000000000000000000000000000000000A5
:103B20000000000000000000000000000000000095
:103B3000232D302B2000686C4C0065666745464796
:103B40000030313233343536373839414243444519
:103B50004600303132333435363738396162636488
:083B6000656600000000000092
:103B680008B10181B0B000840000000008B10181F3
:083B7800B0B000840000000061
:103B8000C0C8FF7F0100000014D6FF7FB0AF0C80DB
:103B900008D8FF7F01000000A0E0FF7FB0A90280ED
:103BA0003CE1FF7FB0B0A8808CE1FF7F0100000006
:103BB00098E1FF7FB0B0AA80D0E1FF7FAE71B28004
:103BC00090E2FF7F010000008CE2FF7FAB3F388076
:103BD000E4E2FF7F01000000F0E2FF7FB0B0AA80C6
:103BE0002CE3FF7F01000000D0E3FF7FAB0EB2802B
:103BF00038E4FF7FB0AF088004E7FF7F01000000DA
:103C000008E7FF7FAC3F038080E9FF7F01000000F1
:103C10005CEBFF7F0084048070EBFF7F01000000FD
:103C20006CEBFF7FB0AD048028EEFF7FB0A803806F
:103C300048EEFF7F34FFFF7F4CEEFF7F38FFFF7FB2
:083C400058EEFF7F01000000B7
:103C48000400002000000000F03A0000103B0000D3
:103C5800D03A000000000000000000000000000052
:103C6800000000000000000000000000000000004C
:103C7800000000000000000000000000000000003C
:103C8800000000000000000000000000000000002C
:103C9800000000000000000000000000000000001C
:103CA80000000000F0EA00D423BB361BE73B1831C4
:103CB800DB2100E5B902D91A24FB3347ECBE3B13DC
:103CC8000AFADE1D0E21231ECF440C1209D509EC79
:103CD800D4D9CB0817DD30113EB6DEEC05EEC51C95
:103CE80006F9EFE808C5E115F249CD0232DA2508F0
:103CF800F2E72E06EC1702F81E09270516FDE9E97A
:103D08001602180F1903F107F1210500EDF6041149
:103D18000412EC1A1E1DE6E8D91BEA331D12D2E77D
:103D2800FCF8EFF003FCF821FB0402FAFEFD08039F
:103D3800DCF0060BFBF30CDFFDD9DC133017E2DDFA
:103D48000A0826080B36E9E708E5F9F8EE1FFED55C
:103D580008FC150F140EDAFACEE30C0CFDEEF50094
:103D680019F8D6D207FFF8F102DAF1F10DFED7EF14
:103D780001F2FEEB08F723DFFB0CDBF2F0F114CBCA
:103D8800CB1B13F5F4E1F20703DBFCD90C0914088B
:103D980013FC0B04160FE3EF13F008271AE024A115
:103DA800CCE32A2527D7ED1019141408E6DBE91D02
:103DB800DFD5AE01352DB4CAF72ED5ECFF2FDD05C2
:103DC800EA03D1DED930DD0DEEF71C0E2CDEABECAC
:103DD80007CAE5E02511241804F930D2260F0CF69D
:103DE80037F1F9C9C92005FD12140918C9EA2617BF
:103DF80015F91A0F0615E6DD04ADCCE21A17FCF228
:103E0800221CF4B2EAEC1D1F15F733EDFF3BFFF05F
:103E1800D9DFD00A18E1F8FC170701E6E2273AFDD6
:103E2800CECE0B0405F50108F8D51BC2080B121DF0
:103E38000CAA30111FE3DDFBFFF0E50E011505F9B3
:103E4800E407E80BCFDEF71A2302F8E6D5CDE2083F
:103E5800F81FE2D9241EBCE51C1AE5CEF003D3E70F
:103E6800040ADA0AF90BF902C7EE03EF141C0D1461
:103E78000AEDB7131118E40EF8131AE3A9D5ECD913
:103E8800FF0A1C2304C2DFE90F1BF81703CCF31B3E
:103E98001C13A8BD0D00D8AC00EEBDF0040ACCDCA4
:103EA800FA0E0DF4EC08F002AE1C2DF7D1311A13FE
:103EB800C000E4F4F5F806EB08180B18F110060B2F
:103EC800CFCCF813F813F2DFD1FEFD0D11FEDEECB6
:103ED80017CA0308F4FFD2F2E209C1F2151FDD1870
:103EE8001A1FF31506F8E4FFFF07E4C203D6F40827
:103EF800191E19DA07F9FEE819FFEAE51FF4DDCD06
:103F08000CEEE91007E8EAFF03D91EDC0329210FAC
:103F1800E60BEE27E925BEE3FC13D300FEECFFEB2E
:103F2800EA090A0A2502E2EF1A0CF6090FFBE62253
:103F3800261CEDCE1BFA05F3F1F3F1EAE9EFEFEFFA
:103F4800E6E502110124D016E2E9F5F1151613078A
:103F5800E91FE8DE060A0AF7FC2AEC28EDCBD5199A
:103F680002DCE225F42BEBF7060AFA0A19F9EAA2B1
:103F780015F5DDC7BF01FFEC0202FD0B0F18FA13A0
:103F8800121BEF060808E4E2E7EEFFAC06C1150FC6
:103F98000C0303F203040C0C06FDF7F6210F1000C6
:103FA800F8E1FB00EFEEFB1E1CF517C9160E09E73A
:103FB800D50AF11B0317F6FC0C23D20E13EF03E806
:103FC8000B090618FDF7FFF207E7F6000114DF00FA
:103FD80001E606FF02070C0501040C0508EC0B02BC
:103FE800E2D1FB03F703E909F5DDE50220EC05F56D
:103FF8000E020500030C04F1FA1B081BF2DEEF1594
:10400800F9E7FE18171502F104130F131B04F7F64E
:1040180016FAF6E6EBF9F8E7F9FF03FB0C052D00B5
:10402800080CE609F1F8F1F2FEFE06EBFDFA170BB3
:10403800FEF504070B10101506FEFEFB1C190D02F9
:10404800F0E7F4ECFD0FF9180F0A00F3F9F4F3F8B0
:10405800FCF80EF9FFFF0AFD090D181513FB01F511
:10406800090C06F4E1E7F5F9210F11120C11EDE73F
:10407800EEE2FBF8070205FD1509FF08E9E5FEEC8D
:10408800E5D10904FFECFA0108FF0B0618E80D0654
:1040980003EFFDF1FB131A1105F906EEFDEFFBFA2C
:1040A800F6F7091403FFE8F9F2F31E120C10F515E0
:1040B800E0F8091000000000000000000000000007
:1040C80000000000000000000000000000000000E8
:1040D80000000000000000000000000000000000D8
:1040E80000000000000000000000000000000000C8
:1040F80000000000000000000000000000000000B8
:10537800000000000EFA01EF09E50ADE27000CE63E
:10538800300FEF0F220119DA0B0609F4FCFC0904AF
:10539800F9E0052211E6F40CF006FAFADC29E20D30
:1053A800F71204021FF2EAE31A0DF313E61B0EEEDE
:1053B800DB2BDD0F25ED140207EE030CCF30D8FAF6
:1053C800111D1BFB0E04FA05E5EC1CFB0D0CFEF091
:1053D800ED0CFC1A1406FAFBF8D110DB0E01E0FB09
:1053E80005380DEA180FEBE1F5FA16FFF3FF08F69A
:1053F8001C1D1DFA0CEC1EEDED13EBEFEBF1DC06BA
:10540800E50A1E091512D5D6F3FEED2D0A06FBF1A5
:1054180006070717342E051822D9F6FFEEF309D52B
:10542800F2E1DF06DAD306EF2902E9DF0CEB1229F5
:10543800FAFBEB112B42D8E7EBFA10F218EDDCE996
:10544800021AFB041B26F5F5EC0E0A27DD1708EDFA
:10545800FD2606D8DDE2072F0800F8D7F613160850
:1054680012FFF013F9F4FF110401151ED7CFECEF6A
:105478002A1D12E2ECF0071A0EEFEC1FEBEB0EDE22
:10548800BFDFF613FDF41515D7D3F7171EED072365
:10549800F7DF1215EBD51C0AECFEF016EC05EFF65B
:1054A80012FFF318E42BE834D8E30324EEE4DE0318
:1054B8002B07B8F2F21426E3D70D29110E002B356D
:1054C80012F1ECBD08FD0C34D5E6160701E00E0E0E
:1054D800F910E8FBDF1413D904DB28170A213FFB76
:1054E800F9F734C5EC34EA1B1235F8FF11DA1A0162
:1054F8000BF1F5F210EF23EBFB3504EEF528352E12
:1055080027E535C721FD13030736FFEEFC10460DCE
:105518000C290CCC3917ECE0FA13EDFE0D31E10B38
:1055280031DC01114507F7212A0D0FD123CE3BF3BA
:10553800FFE7EADB1A2626F4373D310ADE34CE438C
:105548001FE13E35401CF62830DF24B7240E4424E2
:105558000709C5FE2AECEE09561533055521032C1B
:10556800BE070323ECD906F620BB08D90BF9E92AB4
:10557800DBDCEE26EA33E3D2DDC5D9E011DA2127F8
:10558800AD00162E13E2FA0AE5EE04A420D41EF9A3
:10559800D3CCD607A62C14D91CF815E10CC3371B9D
:1055A800D5EA09FAEF07AFD632EDCD041DE0064B78
:1055B8001EC41225BDFFFF1AFF22D50720B6E7FC3F
:1055C800C7C3CCBD2100EA1DFD55E9FC0EF3D32568
:1055D80044D6CFFAD008DD031233C23125E5C2061E
:1055E800F4B8ABD0A824E201FE2006084ADCF0009B
:1055F800492ECAFD1AFBE3E2030F01150941C3EE68
:1056080024CEF405C621DD25D7F326BA172AE91FCB
:1056180044FEE3ECF123F046F820FDD54B5DE90D9F
:105628006912FEED2716441DCAE127D9002110E2B0
:105638004600B4C20024E735C033F207310E061520
:1056480026F92EE61628F5F7E92C4AD1A7300DAB36
:10565800062A1EED1C02FF4EEC38FCE80219D7188A
:105668001AE816EC510B290118F76102E9EBCEFC98
:10567800F2D523E431E9DF3DE42F1420321E05FC86
:105688006805FF07331A220B0B0B2C0EF304BAEE36
:105698003EFA4EE1181EB337D12719410F15FB22E8
:1056A8004B15E0F0E7D8F3D12C0830DFF8DBD13C1C
:1056B8004AFF171624F5D040EA3800203532ED129B
:1056C800F6BD23F6BCBD43E4EA0BFA09140BD82255
:1056D80010FD14EF1419F151FA32DDC4FD0FF00E6C
:1056E800F1CA431206211DFF1801E8CBDCB2CA2318
:1056F80035EDE931E215002C1606F8E7FD1202DD5A
:10570800F6EA1AD2073714DDD5D5EB0CFAC7F7EA53
:10571800092C122AE6E42224F22BE0E7E12DCFFB44
:10572800FCEEF52B023A2BE61CFDD928EBC2035DF3
:1057380015FE2A0AF1162D4CE412E439FD1CEDEB96
:10574800F2F711501CEB1FE1FB01B508D7FECA6147
:105758000327222F001113F71B272C072C20F029D1
:105768000C161A48EFCC00FAF1DACCF4E204C9427C
:10577800EE37131BD43BFB350A0741E7D80C0A0E5A
:10578800EDC008FE39C02E27F81A2219C3FAE651CF
:10579800FB51F53111181AE00E0039F1CF0BDD017C
:1057A800FFC50BFC2EC73D24E603002DFEFFE32DAD
:1057B800224A3F200ED30805F6CBF9D9E103FCE9CC
:1057C800ED0420F5E7FA3736CEF6EB37E115DF2A98
:1057D800DEE8081612F804281807EC07D6021200AB
:1057E800E5EAFB2824ECF449A9E3F729D4E2D62515
:1057F8000AF31111EFEFFC00D704D4D4C6EA19FA62
:10580800D6D4DE2BE617D21C0000DB3D0EE9FD11D5
:10581800D6DF061E09E6151C062CE51619EA1B0C30
:10582800DFF0D608F11CE42EDF0ED816E50E0A1BB1
:10583800E624F116F6EE03F21605FDD9F2F9101A70
:10584800D8E8F30CD522E219C50FF5FB0ED821F3E1
:10585800F4E3DA0108FFE6D2FDF31FDB0F0D161E95
:10586800FB09DC06E909F8DDF0E90C1AF100F4DFC0
:10587800EADC100818BCD010F4EAFA16FCF9FAF8B9
:1058880004E7F112C2F722E4D1F5DFF703E725BCFC
:105898000EFA1BF504C00711FBDFF11034FEDE031E
:1058A8000118F50BF9042FCCEFDB0A1BE42027D4F1
:1058B80001D1230EF904E41BDDE6FDF1F9F40F260E
:1058C800051B21DE2214E3D5131012F3FAF2F3B804
:1058D800F5F8DA1F0BEAF3DAF415EE3607FE1229AB
:1058E8000BF32710100ADCCFF911F7D7060AF3EBF0
:1058F80019FE20EAE1E925DAD220ECF50006D420E9
:10590800DF371703E202F415E70321F815F60BEF6A
:10591800DFDC0ED601E00C1326100DF1E0F2FEF9E3
:105928002CD42306E322E4101EE4F524E304DFFE6E
:10593800E1EFE71AE70AF60EFB29DE001CE2F200A7
:1059480027EFE5F3180DE8E5F8F3F9FBECDE25FFA2
:1059580025E21531E80C091A011B08FCE2E7E3FF10
:10596800FBDFFAD606F100F4260DE5F9DD08DF14B1
:1059780024FDD821F104F63118E7161B2321EFE6A0
:10598800F735E90DFE2E121D15EC071FD9FB1B0874
:105998001F3711F3F51FEEE323EA08DF021DF60DAA
:1059A800E61CD82E1E070603012D03EA1116012254
:1059B800FEF120E6FCEE12F9E7CCDD13F229251AF8
:1059C800E7EFE504110BDDEA082BF1FAF3E905042A
:1059D800EB0113EBE73CDEF5D5F917F90421E1E219
:1059E800F1F1FA1E0AEE281C0D1A0CE8D2E2E3F8CF
:1059F80016170D12FEEAF907BFD9F6E80219F805DD
:105A0800DF0D3905EBD1EA0FF10CD8FF0304EA1ECC
:105A1800221628DED429FD22200219CF25DB15FB0A
:105A2800EEF93018F1EB0EF11ED81534F6EC11E151
:105A38000F15F1CAFE12F2DA11FD13F2F10C151C62
:105A4800F11508F0F52E0AFFDBD2F0EB1602FAD6B4
:105A5800E0E4F8CA08253701C6ECE04DCA0BE908AE
:105A68002BEC0DF31B0C210BDDCC08DFFFE5F70158
:105A7800E4EF111BE029F3D1E1D80119D917381245
:105A880015FA19F5FAFCF03CBDE4FE11F5E512D75C
:105A980000DDED0DFF1209DACD15C9C6DC013C1792
:105AA800F5F3F3F3280F1A18145C27E00DE4FDE76B
:105AB800CBF016E0300BECE4C421F6E9FDED194516
:105AC80010ECE5E825272DF8E71417BAFAEA2215AD
:105AD800EA0811E4402FF3DE1A3702F3D0DA0E4C4D
:105AE80005C13DFA08EB19053717C9D73AF1FBE9A3
:105AF800E901DE122C3B0AF31E14021508041B30C0
:105B0800EEE419EE1CE1182931C7DECA1F24E7129A
:105B180022C7EA1BFF02E4DB16E220F92EE8245430
:105B2800D10D2944E80B0B06F2EBC4DE4134E9231E
:105B3800EE122914B917000D170E32D919B5F80746
:105B4800CBEC2E27E716F203FAD714C018F5E22299
:105B5800CE111A0CDCDEF818EEC7EAE912B61832D4
:105B6800D7E5D9CC3C10CE242436FDF0460AE038DF
:105B780032F1F03BDED9FDFCE14304220AFCE93EA8
:105B8800CDF9BDD21D0510FDD2E21B232D17EF3B29
:105B9800DE05E51706F8F3F422121226F30EC20FFB
:105BA800031FD732B4F8C51527CF3D033ADFC64ED9
:105BB800DB3DED0801FADF370ED9E1E80B040EEA08
:105BC800112A0732F1F62206D0F83AC93A28BBFD65
:105BD8003B08D8FD000EFB4FDAFCC3EADE170C3F8A
:105BE80029DF17EDD61DFA14FF1836DF1B0012C186
:105BF8000113D8ED08DAF329EDDFFCE1E63709EF08
:105C080034102CC53AF605271BF94816D9E8C4C440
:105C1800F0E8330015E4CCF3FD051C1305FEF21380
:105C28002D06F1E956CD161F3E114931D51504E56B
:105C3800F3F429301B08C517FF0E211616F1093396
:105C48003DFEFF3309F8EEDCFDF001221D12E2E211
:105C5800274BF5201B20B1FFD2FD282103E3FDECE3
:105C680023B51408D5EE360AE527FBF60A0310EE2D
:105C78002FEF1F2F08FED20CE0FBD4F2052E1606DC
:105C88002DCA33FB03020916100ADB1AE8ED0625B4
:105C98001C0A130B0924FE20051806EBF32BF52923
:105CA8001BD7EE1BEE20F91BDD19EA2BDCCAEFFE31
:105CB800371B001E04F1E9FEFB23EE0DF4ED04088A
:105CC800192306CAE6F2381ADF00D6EFF6F6010CF9
:105CD800091510263BE4023715F6120BDD1FF62BCB
:105CE800FBF4DCE901B74711E3FEE719DF01D8153A
:105CF800172D1A2109F32D2CF1101C1EF712D304AD
:105D0800E3EBF90E24C407DCF82CC411E9C2000F38
:105D18000F2BF73420DD0A03110B50DE2A22EEED9B
:105D28000DCA1A2004E1223AF2D7DAE9E5E8F73F8A
:105D3800EAF70B33F0F2020B11F81EF00300E11939
:105D48001400D7042B09040C092DD917EECF18F726
:105D5800F0D6E62AE9CE3B102603FBF6F4F7E90C69
:105D68001F0BF7D61D26001DB8210B35D01DFDFFD2
:105D7800F4CCE7F2FEC2E6EBEF3BF3C8FCF4110506
:105D8800E9F502E6D810FA01BE0D020A1817CD0986
:105D98001E03FFF514E027FD00F709FE0A1CEFF4C7
:105DA80030E0C32FF002DCD0EEF5DD1CDC1105DE9F
:105DB800DDF90A040CE204EED517D0F236FF0A0921
:105DC80004AF01F4F107E3CCE1E518EE160B18E691
:105DD8000FDBD4DFFF241504F0E322D41BDB1D08FE
:105DE8001D000B15DB28DCF9192FFD1F320E0F17CC
:105DF80001E5E801E6DD17F71C180A041E10120772
:105E0800F4F41B1907E30EBD15F4DBF9F9E703EF0A
:105E18000DE306F5EDE4DCD1EEFC0C26040C1BEAE0
:105E2800021FF51DE2120BDA080D0EF6F80513E74E
:105E3800DB190EDC0CC3F3D212FB21FD0015FEE5C5
:105E4800FFED0EE9E915EC1221DA01EF19DD09D1B0
:105E5800F5E51806E0E0E3121FE21614FC1ED62B47
:105E6800FF1D30F425EE11F41A1A1409181AEAFD68
:105E78000A20FA11112D1CE3151B1F08E6110BEC63
:105E8800190800F2E81505F50F043DEEF6DDDF21EF
:105E98000CEEE60AE2EAE4FDFCDFE131EAE9EFE5CF
:105EA800142F220F12E904F21EF007F6E4EDEF2496
:105EB800E01DFE0F0CD334FFF322230922FCEDF082
:105EC80024D805F001F9F326EF07CB1E2804EEE4E9
:105ED80008021D0117F7EB220F190421E8FBD4FD76
:105EE8001E0A221601151716FCE3F4FAEFF1F90E53
:105EF800F0FA1415FCD535D90F2C0AE007F319FE72
:105F0800FE061BD1FD03370407F404F4F922140636
:105F1800E6F3E7F4D818E3FF1A15F63728DCD5E3DB
:105F280008FDF9D0F8181806080FEDEAE0E1F106C7
:105F3800ECF2F1E820EA22E82F15E01CD4D91FF58D
:105F4800F3FFE8E3E516E9F6EA051AF120FD02E6B3
:105F580006FB0EFAF315E7E5E3D914FEE61D09F78B
:105F6800EF1AF4FF17DAE91630491BE12307FCF4AE
:105F7800EBF22727FADB1705D5C9D213FAE10FECA4
:105F8800E5202718D9D00E021F3523101E1708C583
:105F9800041128E314EC2205C6EDF0FC45232CDEA1
:105FA800210610FF300708D5080B1AEE0BE21AEA93
:105FB800042B15FE0D0C23E8FF0F2AE80502351205
:105FC800CF00D31313E10D2AFCE30803320D29F4A3
:105FD800F7DD2DECF5ED0D022615EA01DECE0C22DB
:105FE80005D50215FBEE1802E2B6FE083B012CDFD0
:105FF800EBF433E2F90EE70200E4FE08E7AF3437CA
:10600800F022F20403F1EF12EDB6121029D9D6DF0F
:10601800C7C927ED0E0AECBB03C7EC5201B92EF530
:10602800211CF9EE0E081B0CBCF3F3311900BAF170
:10603800C1D20001D41F1008B7B6E336E009093F02
:10604800CE20FE15D3DA2D07C70B2400300FD8EE6B
:10605800EEC513EC24F91DC9D2D4F30FC5E9FA38FB
:10606800CE03D1EF02D53019AD48DFFB4329E71F36
:1060780036EA05CC351517C8ED430213B4B8061235
:1060880007DEEBF4D6FC0902E620F3E03031E60641
:1060980012B8E4FB35EADABB1B261BFE8BD4091DBC
:1060A80032FC010CE807290E3602FEE9604B02D0EB
:1060B80036F9170E231AE7140820F6E01ED534F037
:1060C8002CFDFF3DDADD0726E3D1FBDA37140B1D83
:1060D8001FCF2EC6CAEFE4E92ED61CCDEAF2FBE1AB
:1060E8002D13F8E1E221C31417D416043741E11245
:1060F80027C420EEBED60C3EF3F24C041AB2F0D8F8
:1061080009CC1CEADE14DE2F103245CCFB11EAD78D
:10611800EE0D06D720D240EA08FB2732E2D2FEFA7B
:10612800C509ECE60CCFDE3AF8E3461D56FDDE1154
:106138000E350E160316411F2824FB161505F720E9
:10614800ABDED841F726CE24EBD7490B57E6090E2C
:10615800CB24051225334123180EDB0CDFEE0B117F
:10616800C81A2A0CBADCF517CDE40D1A30D6CDFCC6
:10617800DF2EE24B0E11D2080D1E05FDF6FEE23EA3
:10618800DD04381EDA2C271D1D041D20DE1EE71B2A
:1061980001EF22FEFBFC0E0801F6E41CD7E1100912
:1061A800FDFE17D61EEB2011150F32300F2C07D22B
:1061B8001DFB11240E19DF000C454239D0D0DF0435
:1061C800E5F3DCD638DC260D2405FD1FD415F5D7FC
:1061D80036153BE70737E101FD063244D6F6D72BE3
:1061E800F8F7F8ED2E0F371AF6E70924121708E327
:1061F8004D351C180E25C612E6E6F32CF0C9D91742
:106208003D03EF0CF6140BED1EFAEF0EDBF5EA0476
:106218002104331BE620A6022EFCE7B4C10CF53B93
:1062280022DB1C26CA3240F90C2E110903FF0EE3AB
:106238003022392FE6E8A9FF07D7F8F0DF17EB413E
:106248001AEB17E1FAFD3009FC22DA080FE81A0206
:10625800411D2D2E2ED3E9180907F00822F6C64352
:10626800FA26E5E61AE80C01F2DCEA13FFEDF6D0AF
:106278000743F45D08DBD7F2FFCFDA26041814567B
:1062880042FA1EDA04BD1E040E1BDB06040825D3E1
:106298000100D454F4D907251617390B10232330DD
:1062A800FE251BEEFADF3327FA11F6CBF5C127EAF4
:1062B800330DF311E41BF8303EE56DF1092ACF13D5
:1062C800261ADA042A1B19FC0217F11FCFD4361834
:1062D800FFE5F108F8D0021CFF1C492308ECCF2980
:1062E80003EEEB2CD92CF109FE2FF0E5E20323DEB7
:1062F80003F6F2251AD440F41432302DF70CB907FE
:1063080013E80CF9E72BE81A161DEF02F61DEDE06D
:1063180019FBED2E0ACF2BF738232D2033F8C806AA
:10632800340CE80AE511C51626ECEB07ED0FC9F2A7
:106338000BF8EED90008F015DCF2DEF403FA0017CA
:10634800F9E4F336F41CB6BC22EDFF330917A4CBED
:10635800270AD2FCE122031AF4D602192F01E323FB
:106368001CDD1C1B0C1CEDD905F600161904A7F939
:10637800F9F00FD0030D1DF7170D19E12511DEF205
:106388000A00DBDBF41AD90F0D320F1AE20203DA26
:106398002423FF1509F124FA2FF20600110C040A30
:1063A80011D9DEE431FCE3CDF0F60AF507F8E1E3B4
:1063B800180109E5F6D70703FF0DFFE814030E02DD
:1063C800F7F509F93008F9D00A0928E2EDF03C0B95
:1063D8000D0509F708130209DE0F172A1EED011D26
:1063E800E9E5E3FADE09F21CD7FF061124010A37B2
:1063F800E9221F0E0D2EDACF0CF41DE3EAD7F7E7DA
:10640800F2EA32D2FECDFCF903032B04FF22E91392
:1064180021F601CE14F6F7F4ECD4FE0DDFCB23EB16
:10642800E5E7F9FAD8F4E7E22307F1CD231118FFDD
:10643800E62DF4ED120FF202DEFE05ED07F914F376
:10644800E3213EDB07FEE318150020E2D70C1132EA
:10645800042A20E7EE1A0E0909FAFA15070409EAD0
:106468001315FB020C12F10F1C01FB14F817F8129C
:106478000D2CF7F80FF01301EEFB10EEF60E1221BB
:1064880014F0FDED15F00D191BE9151C1908FD1484
:106498001ADEFCFE220F00FB09F001F9FE180CFDC4
:1064A80004F50BECF20603EAEE1617FD04060B10D2
:1064B800F5040AF2F7F3FC1009F7F606E7FFFB0804
:1064C80011E6E0F41AF2F5F5F8190611090715ECCA
:1064D800D5EBCC010614C60F070EFD110601FE12FE
:1064E8000919F40B1110FFF0E7E4F4F8FDFCEEF6DF
:1064F80004191BE7EEFEFC100301F9FBE1021AD9AF
:10650800FEFEE1DDFA15EFF6F0FEEC08FD0E1806CA
:1065180020FD060E1404021EF512FBFD0B021412D8
:1065280000FAF4F30C090111FCF223100A06001713
:1065380003FC02FA05E91F15032404F9E6F803042D
:1065480004EDF8FF1DEEF0ED08EA0014EB0CFEEE8A
:10655800FF0BEA0108ECEDE110020410F5FDFEF86E
:106568000C13F7E404ECE30A1AF61BFB14E4080224
:1065780006FB0C0712EF05140F11CBEF31F4FCD515
:10658800F6FD190A040508FEFC06080CDFFD0109E2
:10659800F107E3F5F2071306F90FE2FD0A00FF0D14
:1065A80006000208E7EB0612F304FC14E80B0FF0F0
:1065B800EFECEFEBF2FD02001100EFFE02FCECEA5B
:1065C80005F2212B00F20000F009FBF918F003F0A6
:1065D800EAF8FB19041AFDFA0DE8020727F9DEF7B5
:1065E800120C07FCF4FFE40EF31BEEEBD8F300EFFC
:1065F80003F9ED101909F2E3E70206E103FBF612CD
:10660800F2E8CAE90DEEF2E507F9E90AF1131DFB14
:106618000ADA1310FEF807F51701C2171EF222F462
:106628001DFCFBE41213F51908F4FB04010A190216
:1066380012E70AFAF2F8FF1821240C0DFE0319E3F9
:10664800F110F3FBFCFFDFE700F9EB14E710FB0B9D
:10665800281412ECF8281B101408F206FC0B2C2046
:10666800FC12290D0706180DFC05FB18F0F50D089E
:1066780011F2F0FE13FF100ED92711F8130F19208D
:1066880000F2F4F214FAFA0210F6FF1B00F3021EED
:106698000CFEE7030F01FA2EE6D80E1CF8EAF00DFF
:1066A8000F1C03FB03181413EA04D9F00017240283
:1066B800120BD9081504F7DB01E2110FFCFFF2F603
:1066C800FC00F0FB1C0B0E19030F1511F7E0DFFDA2
:1066D800F9010AF0F5FDF5D1EC0B21F81BFF05EDEA
:1066E800F81DEABE0CF2FBFD230604F3FA08F7FFD7
:1066F8000D10FA020205EF120509F8FEE3F80D0E77
:10670800ECFEEDFFF7E9D9F007F2F90D052907F4DA
:10671800F01F08F3FAF401F71CF700E7EC0DF81581
:106728001DE9010815D717FFFC07E9F20B1BF81044
:10673800D0FE1605E8F80E0FF508F20316F2140855
:10674800150300FFDBFB0EF9E602F705D03BECF57D
:1067580017040F070B02F8FAED0CF0D0FFE703F966
:10676800E90916140CFBF8E514E716E2140BEA0124
:1067780007E313F10B150BE7FC00FEF61215FCFFFF
:10678800EFFC13F4E5FD13FB01E00CF8070DF20A2A
:10679800FB0703F20EFFDFF0E5F70FFDFFE124F939
:1067A800DC0F0315DDFF07F8E9FCE705F4EEF50952
:1067B800EC0015F70112FA2320EE1B0B181814EF42
:1067C800FB2111081C23081504131500E6D40A122E
:1067D800121F02FA06F1F51501051701E70202F387
:1067E800F70415F6ECFC00E9EF2314F21EE410F3AD
:1067F800EBE60700F2E016F3000BD3003115F3F7D0
:1068080007D31614EF03161EED0AEE0A0FE406FD71
:10681800E612030702F60D0A121603EF19FCD80850
:10682800180BEB06EF190CF4E910F2E4DF0DF6FC97
:1068380002FA0010FFFDF5F913DF0707EAF204F08A
:106848000319E803EC120DF60A1CF5E0FEE0ECF281
:10685800FD202915ECF90CF109F70703ED101610C6
:106868000A00E6F014EAFCF306FCE1F8F51700016B
:10687800FEFB0B0807071B07F6D401130E160214BC
:10688800FED806FEF913FE0B02F4F30220180812D4
:1068980017EE04F2FF19DE07F9F00E000909DAFC19
:1068A800FA04F0EBFFEDFF04F01103E10BFA0BFA29
:1068B800F6F0F9EACDF2FA140729EAF0D81001E364
:1068C800180905F3F9F6EE0A12F0F210F21108F0C1
:1068D800F816CC1F040CEE171302F407ED03FFFEA5
:1068E800F401F0E608EE00D7190B1210F0E6FD18D7
:1068F80009021506FBF3D80C0C13FBF9F6F8F2F1B4
:1069080014FBEEF4F6EDE9010E21081D13ED010567
:10691800120CF22FFF22E902EAF60AF217EAE8005F
:10692800F6FA040902EF08E31FE5F70801FBEB0696
:106938000C09FFE8E8E40C0AE11914F209F5171547
:106948001209F1F42204F8171409FD09FE0B0A0ACA
:106958000FE8ED1004070FD71EE3FD19F113060A1F
:1069680022F1E7C7FC0BFD010BF61D09FBE4181823
:10697800DFFEEF0BE016F60D05FFF90019F1F8E15F
:10698800F61CFBF3F5F60211FF1510EF0AE4F60CFE
:1069980003F7EF17E4E90B180BFAE802F4F20E0616
:1069A800F9F4F4FAF7EBE910F7040403080907EE21
:1069B800FB02E7FFF8F20CF8F5E3070D01F1C8ED6B
:1069C800F6F30305FD050CFF00FC08EA0DE3F4F6F9
:1069D800FC100FEFF3FBD9E910F7E8F808EEF1D84F
:1069E800F4F9021001F105FC0515F5F7E3E2FBDB0C
:1069F8000B0A07DE06EDFAFFE8FB170FD50B10F1BF
:106A08000DF7DFF5F6F0F8E60CF7ECF5F5EA0C0A09
:106A18000EF30C071ADF0700050DF91BF30A150919
:106A2800F3F4FCFE0B0215081401031DCFF3ED026D
:106A38000BE105FEEAE2E9090CFEFCEDEBF916159F
:106A48001108F016EB00D304EF0FFEFC1C1FF6F63E
:106A58001F030C0EFA170518110A00F9130216F491
:106A680006FF111A02030E15EB0D010FF7FFF515BE
:106A7800EEF3FBFB0010F411161021EFF803100DD4
:106A880000E1FA0E17F6F40119E405161A001414B9
:106A980000DB0E0315F7FEEDDDF8F2FD17F1FD0F33
:106AA800F80AF316091EF9FCDA0104F50313E411D8
:106AB800ED04040D1C170C000201F21CFAF7D803B0
:106AC80006FFF818F510100615E3E8E604F2F3F1EE
:106AD800FB0D13FEFEFAECDBF3190EFD0604FA01BA
:106AE80005E1E3D61907020E0ADF0E0EF60A0C13AB
:106AF80009F1F80EF9DF010E140BF111D3F60EF1BE
:106B0800161AEAEEF004EDF50600FE03FEF80B1186
:106B18000214F61FF6F7E3E105EA1402E914D40DAE
:106B280016FE181413F1FD08F8F6EDE8F6F7FDE681
:106B3800EEFF10E1E7F7FFE4040C17E5EB030CDBCD
:106B4800F40A001CE3FCE4F7FDF51602E7F30A1764
:106B580010FBF9FC1016180F0A06EEFC18EC0609D3
:106B6800D5F90C01F4F3F5ED0CFEEE03F8FFF41083
:106B780002EFF6060407FBEBF30900FA1EE9DBEF68
:106B880009EA091EE4EAF4E8F30E08E91117FFE040
:106B9800E4100DFBEFEBEDF501F50BFBEAE7F1ED8A
:106BA80001FC0125ECE6EDE1D5EAE109040AEFE58F
:106BB80004DCF814F203F514F012F121FAF0E3FD05
:106BC800010E06F716131711E81913060D0414FE23
:106BD800FC10F5080F05ED05ECF519F5F401C50AEB
:106BE80003031A05E6F1100C08F90B04F80F19F75E
:106BF800E60EF3E9F9F71602E3F0ED0E05F0FFF9FA
:106C08000507F20F02051810FCEDEB13F613081434
:106C1800E0FC11FE02EAFAEC000EFF08ED0FFEE6BA
:106C2800F31AE8E1F516FF0B08FFF5EDE809F7049C
:106C380009FEEE04EE0CE6EB0DECD607DCEBEEFB02
:106C4800F4F7ECE2070506FEFEFC0EECF5F101098F
:106C580014FFFDDDE8F0F4FA031625F4FF0D101318
:106C6800FF0DFAF404E6D30015F504FAF100FE0D61
:106C7800E70FF301E61BF6F80F010AF6FB1E0516EF
:106C880002EFFFF3F00A01E8C9F5FE0A12FBFD0462
:106C98000E0405F51B04FDE907031CDFFC10E90ED3
:106CA80005121B0EF7F907FE0613F7DCFB1CE9D9E2
:106CB800D7080FEBB9DA1412D7F7FD01EC251CEA57
:106CC800F606190CFFDFEEFD0611090AE20406EFCD
:106CD800F817F90112FD0EF405FE0FF1F312F5EDA8
:106CE800FAEBE5F2240D17FF160D0804FCD6FB0796
:106CF8001910F20402EDF0FA1DEBE00AD6EA1DF1D4
:106D08001F1DEFE600FD030F030DF61202C3FAE79D
:106D18001D00FA110C28E011F5040AE210F2090A24
:106D2800DD031420F9F606FF0500130802F714081E
:106D38000E0ED905FAE00A1417FF2E0BEE271706D8
:106D48000AF7F60B001BF6120BF6E51AF5FBF0FE38
:106D580006FDFCF913101DEFE4DD0B060412FE1806
:106D680003F212031C04FC110E03F8EC1CEE14FFD2
:106D7800F4F400EFFADE0804051EF0E822060DD54B
:106D8800DAFF1C0C01FF180E1003270007040C1E65
:106D9800F6FFFEE8E7FCF10F1D03D91FFB150EF403
:106DA8000009000617E9F919FF30FEFC14F3FDF994
:106DB800F81809220CF513D9E0F3F4020CEDE406F7
:106DC80010FBFFE2F4121605DFDEE2EFF4FCF4E656
:106DD80005F311F8D2F700FFF205E9E122F9F6040C
:106DE8000A1E1F07EAF80E0DEFF418E7F0FCFCEF97
:106DF80001F404F11110FD160EFD0214E719F4FB5D
:106E0800F5E707E80A08E610FC080FFC16FF0D1165
:106E18001BF9031507EA111ADFEC100CFE0F16FE1A
:106E280003FA1BEBF5F7E201EEFEF6031103E4F2B9
:106E3800FEE6FA06EACFEE0B10FC02F9F80F170A85
:106E4800071315100B00F5EE0FEC0113FEEBF00A1B
:106E5800FDFCE0FCF6FE1213040917FE1CFC10FCF6
:106E6800E9FC0D24F1031200FE0923FD2409EE2696
:106E7800EAF9E615FD0AFD05F8F70DEFFD1D0BF71C
:106E8800F5F4E60409030F140CFB001603081203BB
:106E9800111DEE1F09ED0AF0F911FE030B0204FDA6
:106EA800DAF509ECEDFF0AFBF1DCED07FA18D8FE7C
:106EB80011D9FEF01E0606F7E420FAF603F6FDE304
:106EC8000FF4FCE9ECEFF1FF11EAFFF60DFBF5EE2C
:106ED800061D17EF060EF6EE0BF3EC21FC12F21C62
:106EE8000AEDFAE725250A010FFAFD0EFFE3F0EF98
:106EF800F3EEF90CFA0E04F81CF404F6D31D1D0485
:106F0800FC03F6DF2BE7DEE7090C1909EEE1172091
:106F180011F5E610120C0D0DF9F9F6F9FC08E1145B
:106F280014EDEFFBF9211A13091C01FD110A00ECFD
:106F3800F52218F9D0E41D09F9F601F4CB041CF583
:106F4800051212110AF2E4EAFC0CFF0006E818FC2C
:106F58001C021120F713FE180C12F1F30DFBFCFBB9
:106F6800D0F9F7FEEC1B13D8F8F00EE7E600EE13A5
:106F7800D903F5FF09F0F3F20CE104060FE1EE0086
:106F8800F5130701EDFB0204DA05F1E60E04FBF147
:106F9800D6140307E0DEEB0B22FDF1E7050604EA51
:106FA80014E7152501EDF6FFF106F9F306FFF3FCEA
:106FB80005EA17FB14EADFF1F6180CFE0BEDD7FE15
:106FC80005FB040CEDFE0511050AF6D903FE01ECDC
:106FD80011E3FF0F1819F2EFEBF1110E01F8F401AC
:106FE800F226FBF9F403FDEBFEF106F104FD0F06B2
:106FF800FDED16EBEE041EF8F10DBD1C0BF30613A8
